S01300004C6F67696E53797374656D2E7372656393
S11300000C942A000C9447000C9447000C9447006D
S11300100C9447000C9447000C9447000C94470040
S11300200C9447000C9447000C9447000C94470030
S11300300C9447000C94780A0C94A10A0C94CA0AF4
S11300400C9447000C9447000C9447000C94470010
S11300500C94470011241FBECFE5D8E0DEBFCDBF0E
S113006010E0A0E6B0E0E4EBFBE102C005900D92E5
S1130070A23CB107D9F710E0A2ECB0E001C01D9298
S1130080A83CB107E1F70E94F7030C94D80D0C9437
S11300900000843028F4683018F440E00E945F00C7
S11300A00895843020F4683010F40E942D020895DD
S11300B0843020F4683010F40E94D901089584300B
S11300C008F08BC0683008F08AC0423008F089C05C
S11300D0813041F1813038F0823009F441C08330FD
S11300E009F081C05BC0413071F42AB381E090E033
S11300F0AC0102C0440F551F6A95E2F7BA01622BA6
S11301006ABB80E008952AB381E090E0AC0102C0AC
S1130110440F551F6A95E2F7BA01609562236ABBE2
S113012080E00895413069F447B321E030E0C9012B
S113013002C0880F991F6A95E2F7842B87BB80E081
S1130140089527B381E090E0AC0102C0440F551F2D
S11301506A95E2F7BA016095622367BB80E008956F
S1130160413069F444B321E030E0C90102C0880F92
S1130170991F6A95E2F7842B84BB80E0089524B329
S113018081E090E0AC0102C0440F551F6A95E2F78C
S1130190BA016095622364BB80E00895413071F434
S11301A021B381E090E0AC0102C0440F551F6A9571
S11301B0E2F7BA01622B61BB80E0089521B381E0CC
S11301C090E0AC0102C0440F551F6A95E2F7BA01F2
S11301D06095622361BB80E0089581E0089581E029
S11301E0089581E0089580E00895843008F08BC07C
S11301F0683008F08AC0423008F089C0813041F18B
S1130200813038F0823009F441C0833009F081C074
S11302105BC0413071F42BB381E090E0AC0102C0CB
S1130220440F551F6A95E2F7BA01622B6BBB80E05D
S113023008952BB381E090E0AC0102C0440F551F38
S11302406A95E2F7BA01609562236BBB80E008957A
S1130250413069F448B321E030E0C90102C0880F9D
S1130260991F6A95E2F7842B88BB80E0089528B330
S113027081E090E0AC0102C0440F551F6A95E2F79B
S1130280BA016095622368BB80E00895413069F447
S113029045B321E030E0C90102C0880F991F6A9577
S11302A0E2F7842B85BB80E0089525B381E090E0DC
S11302B0AC0102C0440F551F6A95E2F7BA0160957C
S11302C0622365BB80E00895413071F422B381E07C
S11302D090E0AC0102C0440F551F6A95E2F7BA01E1
S11302E0622B62BB80E0089522B381E090E0AC0110
S11302F002C0440F551F6A95E2F7BA016095622364
S113030062BB80E0089581E0089581E0089581E072
S1130310089580E00895843008F045C0683008F0FE
S113032044C08130B1F0813030F0823001F183304B
S113033009F03DC02AC02BB381E090E0AC0102C0BB
S1130340440F551F6A95E2F7BA0162276BBB80E040
S1130350089528B381E090E0AC0102C0440F551F1A
S11303606A95E2F7BA01622768BB80E0089525B375
S113037081E090E0AC0102C0440F551F6A95E2F79A
S1130380BA01622765BB80E0089522B381E090E062
S1130390AC0102C0440F551F6A95E2F7BA01622707
S11303A062BB80E0089581E0089581E0089580E0D3
S11303B00895843008F049C0683008F048C04115F9
S11303C0510509F446C08130B1F0813030F08230FB
S11303D001F1833009F03FC02AC089B390E09C0149
S11303E002C0359527956A95E2F7B9016170FA0163
S11303F0608380E0089586B390E09C0102C0359547
S113040027956A95E2F7B9016170FA01608380E08B
S1130410089583B390E09C0102C0359527956A95B1
S1130420E2F7B9016170FA01608380E0089580B356
S113043090E09C0102C0359527956A95E2F7B901D1
S11304406170FA01608380E0089581E0089581E09D
S1130450089581E0089580E00895843008F045C04F
S1130460683008F044C08130B1F0813030F082301F
S113047001F1833009F03DC02AC02BB381E090E044
S1130480AC0102C0440F551F6A95E2F7BA01622B12
S11304906BBB80E0089528B381E090E0AC0102C01A
S11304A0440F551F6A95E2F7BA01622B68BB80E0DE
S11304B0089525B381E090E0AC0102C0440F551FBC
S11304C06A95E2F7BA01622B65BB80E0089522B316
S11304D081E090E0AC0102C0440F551F6A95E2F739
S11304E0BA01622B62BB80E0089581E0089581E047
S11304F0089580E008958430A8F5813091F081302A
S113050028F08230C9F0833079F521C06F3F29F497
S11305108AB38FEF8ABB80E008958AB31ABA80E069
S113052008956F3F29F487B38FEF87BB80E0089568
S113053087B317BA80E008956F3F29F484B38FEF2F
S113054084BB80E0089584B314BA80E008956F3FBB
S113055029F481B38FEF81BB80E0089581B311BA90
S113056080E0089581E0089580E008958430A8F43F
S1130570813051F0813028F0823049F0833079F4B1
S113058009C06BBB80E0089568BB80E0089565BB3B
S113059080E0089562BB80E0089581E0089580E0E2
S11305A00895843000F561157105F9F0813061F02A
S11305B0813028F0823069F08330C9F40FC08BB3E6
S11305C0FB01808380E0089588B3FB01808380E091
S11305D0089585B3FB01808380E0089582B3FB0115
S11305E0808380E0089581E0089581E0089580E0AB
S11305F008958430E8F4813061F0813028F082304D
S113060069F08330B9F40FC08BB380958BBB80E065
S1130610089588B3809588BB80E0089585B380955C
S113062085BB80E0089582B3809582BB80E0089505
S113063081E0089580E008958430E8F4813061F029
S1130640813028F0823069F08330B9F40FC08BB365
S11306508FEF8BBB80E0089588B38FEF88BB80E079
S1130660089585B38FEF85BB80E0089582B38FEF43
S113067082BB80E0089581E0089580E008950E949F
S1130680870308951F93CF93DF93D82F192FC62F75
S11306900E949203812F80650E94B5038D2F0E94D2
S11306A0DB038C2F0E94DB030E94AE038FE19EE4E8
S11306B00197F1F700C00000DF91CF911F910895D9
S11306C00F931F93CF93DF93082FEB012097D1F063
S11306D0192F10650E949203812F0E94B503802F69
S11306E00E94DB030E94A003812F0E94C803CE0155
S11306F00E94E7030E94AE038FE19EE40197F1F7A5
S113070000C00000DF91CF911F910F9108958CE0FC
S113071080B90898099886B7806486BF86B78460D4
S113072086BF089586B7806286BF86B7806886BF15
S113073006B607FEFDCF81B1887F8830E1F70895C2
S113074086B7806286BF86B7806886BF06B607FE16
S1130750FDCF81B1887F8031E1F7089586B780614C
S113076086BF86B7806886BF0895882384F0880F83
S113077083B9189886B78F7D86BF86B7806886BF91
S113078006B607FEFDCF81B1887F8831E1F7089571
S1130790882384F0880F83B9189A86B78F7D86BF23
S11307A086B7806886BF06B607FEFDCF81B1887F15
S11307B08034E1F7089583B986B7806886BF06B6AA
S11307C007FEFDCF81B1887F8832E1F70895009755
S11307D069F026B7206826BF06B607FEFDCF21B113
S11307E0287F2035E1F723B1FC0120830895CF93BE
S11307F0DF93CDB7DEB727970FB6F894DEBF0FBEF1
S1130800CDBF0E94AF060E94390A0E94DF0987E823
S113081093E166E771E00E94EF090E942B0881E0F2
S113082064E00E94C00981E065E00E94A10981E0C2
S113083066E00E94A10981E067E00E94A10981E0CD
S113084060E00E94490080E690E00E94C6088FEFB5
S11308509DE3A9E481509040A040E1F700C000006E
S11308600E94D50880E790E00E94C6080E943F03DA
S113087000E010E00F2EF0E7EF2EF0E0FF2EF02D59
S11308800F2EF4E6CF2EDD24F02D0F2EF3EAAF2E3B
S1130890F0E0BF2EF02D0F2EF1E98F2EF0E09F2E09
S11308A0F02D0F2EFDE96F2EF0E07F2EF02D0F2E90
S11308B0FFE94F2EF0E05F2EF02D0F2EFAE72F2EDA
S11308C0F0E03F2EF02D88EC90E060E00E944203BF
S11308D0AFE3BCE91197F1F700C0000088EC90E0A9
S11308E0BE016C5F7F4F0E9460038FE39CE9019718
S11308F0F1F700C0000081E060E0AE01495F5F4FA6
S113090020E00E9458008F81882309F0FCC0CE01AA
S113091005960E94460A8D8180538A3070F4133004
S113092061F0E1E0F0E0EC0FFD1FE00FF11D8083CA
S11309300F5F1F5F8AE20E94900889812A814B81A0
S11309409D819D3309F09BC0133009F098C0EC8160
S1130950F0E090E08C9DB0018D9D700D9C9D700D1C
S11309601124822F90E0880F991F9C01220F331FBE
S1130970220F331F820F931F860F971F840F911D21
S1130980E817F90741F582E08093AB0080EC0E9400
S1130990F507C1010E94C60881E062E00E94E208F6
S11309A08CE890E00E94C60887E893E163EF71E069
S11309B00E94EF0981E065E00E94B10981E066E0F0
S11309C00E94B10981E067E00E94A90981E064E026
S11309D00E94D00954C08091AB008823B9F180EC07
S11309E00E94F507C4010E94C6088091AB0090E004
S11309F00E940509C3010E94C60887E893E166E7DF
S1130A0071E00E94EF0981E067E00E94B10981E092
S1130A1066E00E94B10981E065E00E94A90981E0D5
S1130A2064E00E94D0098AE061E00E94E208C20109
S1130A300E94C6088AE061E00E94E2088091AB004F
S1130A4081508093AB0000E010E019C00E94D508EB
S1130A5085E061E00E94E208C5010E94C60881E0C9
S1130A6067E00E94B10981E066E00E94A90981E083
S1130A7065E00E94B10981E064E00E94C8098D81AB
S1130A80833209F020CF8091AB008823F1F481E018
S1130A9067E00E94B10981E066E00E94A90981E053
S1130AA065E00E94B10981E064E00E94C80987E81A
S1130AB093E166E771E00E94EF090E94D508C7013F
S1130AC00E94C60800E010E0FECE81E067E00E94CC
S1130AD0B10981E066E00E94B10981E065E00E940D
S1130AE0B10981E064E00E94D00987E893E166E7F8
S1130AF071E00E94EF090E94D508C7010E94C60850
S1130B0000E010E0E0CECE0106960E94FC068E8145
S1130B108F3F09F4D8CE8A3209F4D5CE8F3209F446
S1130B20D2CE8D3209F4CFCE8B3209F4CCCE8D33B4
S1130B3009F4F9C0833209F4B6C0133009F4C3CE02
S1130B40E1E0F0E0EC0FFD1FE00FF11D80830F5F8B
S1130B501F5F8AE20E94900889812A816B819E81AD
S1130B609D3309F09CC090E08C9DA0018D9D500D9B
S1130B709C9D500D1124822F90E0880F991F9C0199
S1130B80220F331F220F331F820F931F840F951FD1
S1130B909C01260F311D133009F081C08C8190E037
S1130BA08217930741F582E08093AB0080EC0E94AA
S1130BB0F507C1010E94C60881E062E00E94E208D4
S1130BC08CE890E00E94C60887E893E163EF71E047
S1130BD00E94EF0981E065E00E94B10981E066E0CE
S1130BE00E94B10981E067E00E94A90981E064E004
S1130BF00E94D00954C08091AB008823B9F180ECE5
S1130C000E94F507C4010E94C6088091AB0090E0E1
S1130C100E940509C3010E94C60887E893E166E7BC
S1130C2071E00E94EF0981E067E00E94B10981E070
S1130C3066E00E94B10981E065E00E94A90981E0B3
S1130C4064E00E94D0098AE061E00E94E208C201E7
S1130C500E94C6088AE061E00E94E2088091AB002D
S1130C6081508093AB0000E010E019C00E94D508C9
S1130C7085E061E00E94E208C5010E94C60881E0A7
S1130C8067E00E94B10981E066E00E94A90981E061
S1130C9065E00E94B10981E064E00E94C8098E8188
S1130CA0833209F010CE8091AB008823F1F481E007
S1130CB067E00E94B10981E066E00E94A90981E031
S1130CC065E00E94B10981E064E00E94C80987E8F8
S1130CD093E166E771E00E94EF090E94D508C7011D
S1130CE00E94C60800E010E0EECD81E067E00E94BB
S1130CF0B10981E066E00E94B10981E065E00E94EB
S1130D00B10981E064E00E94D00987E893E166E7D5
S1130D1071E00E94EF090E94D508C7010E94C6082D
S1130D2000E010E0D0CD898190E08C9DA0018D9DE4
S1130D30500D9C9D500D11248A8190E0880F991FBD
S1130D409C01220F331F220F331F820F931F840F26
S1130D50951F2B81DC01A20FB11D9D011CCF80E0EA
S1130D6060E040E00E945F0080E061E040E00E94BB
S1130D705F0080E062E040E00E945F0080E063E0AA
S1130D8040E00E945F0082E064E04FEF0E945F0059
S1130D9082E065E04FEF0E945F0082E066E04FEF83
S1130DA00E945F0082E067E04FEF0E945F0082E0F4
S1130DB064E041E00E945F0082E065E041E00E945F
S1130DC05F0082E066E041E00E945F0082E067E04D
S1130DD041E00E945F0080E060E00E942D0280E01C
S1130DE061E00E942D0280E062E00E942D0280E01A
S1130DF063E00E942D0208952F923F924F925F92DA
S1130E006F927F929F92AF92BF92CF92DF92EF92B6
S1130E10FF920F931F93CF93DF93CDB7DEB7A197C4
S1130E200FB6F894DEBF0FBECDBF99A388A3009779
S1130E3009F483C08FEFE8A1F9A1808382E08A8757
S1130E408B878C878D8794E09E8395E09F8396E0C3
S1130E50988797E099871A8291E09B838C8383E03B
S1130E608D83DE011E96ECEAF0E080E101900D92A4
S1130E708150E1F70F2EFAE04F2E5524F02D4C0E41
S1130E805D1E0F2EF6E02F2E3324F02D2C0E3D1E6A
S1130E90AA24BB24BF8EAE8EF201E1902F01F10192
S1130EA091901F018E2D692D40E00E94F500CC2405
S1130EB0DD246894C1F8CC0EDD1E00E010E038019A
S1130EC0F601F1906F0180E06F2DAE014F5F5F4F2F
S1130ED00E94D90189818823F1F480E06F2DAE014D
S1130EE04F5F5F4F0E94D90189818823B1F3F301D9
S1130EF0EE0FFF1FEE0FFF1F81E090E08C0F9D1F90
S1130F00E80FF91F8E8D9F8DE80FF91F8585E8A1E5
S1130F10F9A1808312C00F5F1F4F0430110579F6C9
S1130F208E2D692D41E00E94F5000894A11CB11C8E
S1130F30F4E0AF16B10409F0ADCFA1960FB6F89462
S1130F40DEBF0FBECDBFDF91CF911F910F91FF90F8
S1130F50EF90DF90CF90BF90AF909F907F906F9075
S1130F605F904F903F902F900895CF93C82F80FDAE
S1130F7006C080E064E040E00E94F50005C080E027
S1130F8064E041E00E94F5008C2F869580FD06C048
S1130F9080E065E040E00E94F50005C080E065E087
S1130FA041E00E94F5008C2F8695869580FD06C051
S1130FB080E066E040E00E94F50005C080E066E065
S1130FC041E00E94F500C695C695C695C0FD06C0D1
S1130FD080E067E040E00E94F50005C080E067E043
S1130FE041E00E94F500CF910895CF93C82F81E08E
S1130FF061E040E00E94F50081E062E040E00E9490
S1131000F5008C2F82958F700E94B50781E063E014
S113101041E00E94F5008FE99FE00197F1F700C0DD
S1131020000081E063E040E00E94F5008C2F0E9404
S1131030B50781E063E041E00E94F5008FE99FE09D
S11310400197F1F700C0000081E063E040E00E94F6
S1131050F500CF91089581E061E041E00E945F00D6
S113106081E062E041E00E945F0081E063E041E0F2
S11310700E945F0080E064E041E00E945F0080E045
S113108065E041E00E945F0080E066E041E00E948C
S11310905F0080E067E041E00E945F008FE795EB2E
S11310A0A1E081509040A040E1F700C0000081E041
S11310B061E040E00E94F50081E062E040E00E94CF
S11310C0F50082E00E94B50781E063E041E00E9400
S11310D0F500AFE9BFE01197F1F700C0000081E02F
S11310E063E040E00E94F50088E20E94F507B0EF5B
S11310F0BA95F1F78CE00E94F50780EF8A95F1F735
S113110081E00E94F507AFE3BFE11197F1F700C05A
S1131110000086E00E94F507B0EFBA95F1F7089554
S1131120CF93C82F81E061E041E00E94F50081E0A7
S113113062E040E00E94F5008C2F82958F700E943F
S1131140B50781E063E041E00E94F5008FE99FE08C
S11311500197F1F700C0000081E063E040E00E94E5
S1131160F5008C2F0E94B50781E063E041E00E9406
S1131170F5008FE99FE00197F1F700C0000081E0DE
S113118063E040E00E94F500CF910895CF93DF9390
S1131190EC018881882331F021960E94900889917E
S11311A08823D9F7DF91CF91089581E00E94F50754
S11311B08FE39FE10197F1F700C0000080E80E94EF
S11311C0F5070895CF93DF9300D000D0CDB7DEB7F5
S11311D090E8998390EC9A8394E99B8394ED9C83A3
S11311E08150FE01E60FF11D9081890F0E94F507E1
S11311F08FE99FE00197F1F700C000000F900F9076
S11312000F900F90DF91CF9108950F931F93CF9379
S1131210DF93CDB7DEB7A0970FB6F894DEBF0FBE4D
S1131220CDBF2DB73EB7285030400FB6F8943EBF1F
S11312300FBE2DBFEDB7FEB731968E010F5F1F4F66
S1131240ADB7BEB712961C930E93119721E130E00F
S1131250338322832CEB30E0358324839783868386
S11312600E94F30A2DB73EB7285F3F4F0FB6F8949C
S11312703EBF0FBE2DBFC8010E94C608A0960FB680
S1131280F894DEBF0FBECDBFDF91CF911F910F91B8
S11312900895CF93DF93EC01862F642F0E94E20818
S11312A0CE010E940509DF91CF9108950F931F93FA
S11312B0CF93DF93CDB7DEB7A0970FB6F894DEBF18
S11312C00FBECDBFDC01CB012DB73EB72A50304055
S11312D00FB6F8943EBF0FBE2DBF4DB75EB74F5F3C
S11312E05F4F8E010F5F1F4FEDB7FEB7128301836F
S11312F021E130E0FA01338322832FEB30E03583A0
S1131300248386839783A087B1870E94F30A2DB72D
S11313103EB7265F3F4F0FB6F8943EBF0FBE2DBFBA
S1131320C8010E94C608A0960FB6F894DEBF0FBE8F
S1131330CDBFDF91CF911F910F9108950E94F507C2
S11313400895843028F4683018F441E00E945F0066
S11313500895843028F4683018F441E00E94F500C0
S11313600895843028F4683018F440E00E94F500B1
S11313700895843020F4683010F40E948B0108959D
S1131380843028F4683018F441E00E945F00089526
S1131390843028F4683018F441E00E94F500089580
S11313A0843028F4683018F440E00E94F500089571
S11313B0843020F4683010F40E948B01089583E097
S11313C067E040E00E945F0083E065E041E00E9446
S11313D05F0083E064E041E00E945F0008950F93A2
S11313E01F93CF93DF93EC018B010E94050ACE017A
S11313F0B8010E94320A0E941E0ADF91CF911F9108
S11314000F9108950E94280A08958FB58E7F8FBD8D
S11314108FB582608FBD8EB588608EBD8EB58061BC
S11314208EBD8FB58F7B8FBD8FB580688FBD8FB517
S11314308F7E8FBD8FB580628FBD08958EB581601C
S11314408EBD8EB582608EBD8EB58B7F8EBD0895A8
S11314508EB58E7F8EBD8EB58D7F8EBD8EB58B7F06
S11314608EBD089597BD86BD7BBD6ABD79BD68BD3F
S11314700895529886E880BD87E689B910BC5998CA
S1131480579A569A559A539A549A0895009729F060
S11314905F9BFECF2CB1FC01208308958CB98BB1E6
S11314A085FFFDCF08950F931F93CF938C01FC010B
S11314B08081882351F0C0E00E944E0ACF5FF8017A
S11314C0EC0FF11D80818823B9F7CF911F910F9103
S11314D008959093C3008093C20008959093C5002B
S11314E08093C40008959093C7008093C600089524
S11314F01F920F920FB60F9211242F933F934F9385
S11315005F936F937F938F939F93AF93BF93EF9367
S1131510FF93E091C200F091C300309709F0099560
S1131520FF91EF91BF91AF919F918F917F916F91B7
S11315305F914F913F912F910F900FBE0F901F908D
S113154018951F920F920FB60F9211242F933F9369
S11315504F935F936F937F938F939F93AF93BF93B7
S1131560EF93FF93E091C400F091C500309709F028
S11315700995FF91EF91BF91AF919F918F917F91C9
S11315806F915F914F913F912F910F900FBE0F90EC
S11315901F9018951F920F920FB60F9211242F933C
S11315A03F934F935F936F937F938F939F93AF93E7
S11315B0BF93EF93FF93E091C600F091C70030977B
S11315C009F00995FF91EF91BF91AF919F918F9190
S11315D07F916F915F914F913F912F910F900FBE2B
S11315E00F901F901895AEE0B0E0E9EFFAE00C948C
S11315F0AF0D0D891E898F89988D26E02C831A835F
S1131600098397FF02C080E090E801979E838D8351
S1131610AE01455E5F4FCE010196698D7A8D0E94C1
S1131620230B4D815E8157FD0AC02F8138854217F7
S113163053070CF49A01020F131FF80110822E961F
S1131640E4E00C94CB0DADE0B0E0E9E2FBE00C94F7
S1131650A10D3C017D876C875A01FC01178216821B
S1131660838181FFC8C12E010894411C511CF301E0
S11316709381EC85FD8593FD859193FF8191FD8791
S1131680EC87882309F4B3C1853241F493FD859135
S113169093FF8191FD87EC87853229F490E0B301B3
S11316A00E94170DE4CFFF24EE2410E01032B0F4B2
S11316B08B3269F08C3228F4803251F0833271F429
S11316C00BC08D3239F0803349F411602CC01260A4
S11316D0146029C0186027C0106125C017FD2EC0F2
S11316E0282F20532A3098F416FF08C08F2D880F16
S11316F0F82EFF0CFF0CF80EF20E15C08E2D880F7D
S1131700E82EEE0CEE0CE80EE20E10620CC08E32E7
S113171021F416FD6CC1106406C08C3611F41068F7
S113172002C0883659F4EC85FD8593FD859193FFBD
S11317308191FD87EC87882309F0B8CF982F9554C1
S1131740933018F09052933038F424E030E0A20E35
S1131750B31E3FE339830FC0833631F0833781F002
S1131760833509F05AC022C0F5018081898322E0C3
S113177030E0A20EB31E21E0C22ED12C420114C0CF
S113178092E0292E312C2A0C3B1CF501808091809B
S113179016FF03C06F2D70E002C06FEF7FEFC4012E
S11317A00E940C0D6C0151011F7715C082E0282E98
S11317B0312C2A0C3B1CF5018080918016FF03C05C
S11317C06F2D70E002C06FEF7FEFC4010E94010D26
S11317D06C011068510113FD1CC006C080E290E04A
S11317E0B3010E94170DEA948E2D90E0C816D90615
S11317F0A8F30FC0F40117FD859117FF81914F01E4
S113180090E0B3010E94170DE110EA940894C10816
S1131810D108C114D10471F7E7C0843611F08936B8
S113182051F5F50117FF07C080819181A281B38131
S113183024E030E008C080819181AA2797FDA0951B
S1131840BA2F22E030E0A20EB31E012F0F76B7FFAD
S113185008C0B095A095909581959F4FAF4FBF4F0D
S11318600068BC01CD01A2012AE030E00E94430DD2
S1131870D82ED4183FC0853721F41F7E2AE030E0EB
S113188020C0197F8F36A9F0803720F4883509F0FD
S1131890AEC00BC0803721F0883709F0A8C001C062
S11318A0106114FF09C0146007C014FF08C016605B
S11318B006C028E030E005C020E130E002C020E1AD
S11318C032E0F50117FF07C0608171818281938145
S11318D044E050E006C06081718180E090E042E025
S11318E050E0A40EB51EA2010E94430DD82ED418B8
S11318F0012F0F7706FF09C00E7FDF1430F404FFB9
S113190006C002FD04C00F7E02C01D2D01C01F2DA4
S1131910802F90E004FF0CC0FE01ED0DF11D20812D
S1131920203311F4097E09C002FF06C01E5F05C002
S113193086789070009709F01F5F802E992403FD2C
S113194012C000FF0DC0FD2C1E1550F4FE0CF11A40
S11319501E2D06C080E290E0B3010E94170D1F5FA8
S11319601E15C0F304C01E1510F4E11A01C0EE24C4
S113197084FE0FC080E390E0B3010E94170D82FE45
S11319801FC081FE03C088E590E010C088E790E0A6
S11319900DC0C40186789070009791F081FC02C05C
S11319A080E201C08BE207FD8DE290E0B3010E946A
S11319B0170D06C080E390E0B3010E94170DFA945E
S11319C0DF14C0F3DA94F201ED0DF11D808190E093
S11319D0B3010E94170DDD20A9F706C080E290E054
S11319E0B3010E94170DEA94EE20C1F740CEF30133
S11319F08681978102C08FEF9FEF2D96E2E10C94D0
S1131A00BD0DFC010590615070400110D8F7809520
S1131A1090958E0F9F1F0895FC01615070400190B6
S1131A200110D8F7809590958E0F9F1F08950F93FE
S1131A301F93CF93DF938C01EB018B8181FF1BC03C
S1131A4082FF0DC02E813F818C819D81281739072B
S1131A5064F4E881F9810193F983E88306C0E88599
S1131A60F985802F0995009731F48E819F81019625
S1131A709F838E8302C00FEF1FEFC801DF91CF91C8
S1131A801F910F910895FA01AA27283051F12031AE
S1131A9081F1E8946F936E7F6E5F7F4F8F4F9F4FFE
S1131AA0AF4FB1E03ED0B4E03CD0670F781F891F40
S1131AB09A1FA11D680F791F8A1F911DA11D6A0F0E
S1131AC0711D811D911DA11D20D009F468943F91C1
S1131AD02AE0269F11243019305D3193DEF6CF01C0
S1131AE00895462F4770405D4193B3E00FD0C9F786
S1131AF0F6CF462F4F70405D4A3318F0495D31FDF3
S1131B004052419302D0A9F7EACFB4E0A695979545
S1131B10879577956795BA95C9F70097610571051B
S1131B2008959B01AC010A2E069457954795379565
S1131B302795BA95C9F7620F731F841F951FA01DBF
S1131B4008952F923F924F925F926F927F928F925D
S1131B509F92AF92BF92CF92DF92EF92FF920F9338
S1131B601F93CF93DF93CDB7DEB7CA1BDB0B0FB642
S1131B70F894DEBF0FBECDBF09942A8839884888FF
S1131B805F846E847D848C849B84AA84B984C88495
S1131B90DF80EE80FD800C811B81AA81B981CE0F8C
S1131BA0D11D0FB6F894DEBF0FBECDBFED01089571
S1071BB0F894FFCFD3
S1131BB42020202057454C434F4D45202020200011
S1131BC450415353574F52443A00202020202020A0
S1131BD4202020202020202020202000545255455D
S1131BE40054727920416761696E205B005D0020B6
S1131BF42020005741524D494E4700020708092F3F
S1131C040405062A0102032D23003D2B2564002527
S1051C14660064
S9030000FC
