:100000000C942A000C9447000C9447000C94470071
:100010000C9447000C9447000C9447000C94470044
:100020000C9447000C9447000C9447000C94470034
:100030000C9447000C94BD0A0C94E60A0C940F0B28
:100040000C9447000C9447000C9447000C94470014
:100050000C94470011241FBECFE5D8E0DEBFCDBF12
:1000600010E0A0E6B0E0E6EAF0E202C005900D92F2
:10007000A83DB107D9F710E0A8EDB0E001C01D928E
:10008000AE3DB107E1F70E9449000C9451100C9469
:100090000000CF93DF93CDB7DEB727970FB6F89464
:1000A000DEBF0FBECDBF0E9467030E9497060E946D
:1000B000E3040E94FD0281E065E00E94590681E0B0
:1000C00066E00E94590681E067E00E94590681E0DF
:1000D00060E00E94090381E064E00E9478060E94CB
:1000E0001F0360E070E0CB010E94A40680E090E076
:1000F0006BE70E9422038FE39CE90197F1F700C0B0
:10010000000080E090E0BE016C5F7F4F0E944003E2
:10011000AFE3BCE91197F1F700C0000080E690E082
:100120000E947E0580EC0E94AD048EE690E00E9465
:100130007E058FEF9DE3A9E481509040A040E1F758
:1001400000C000000E948D058EE790E00E947E05B1
:1001500010E000E00F2EFEE7EF2EF0E0FF2EF02D76
:100160000F2EF4E6CF2EDD24F02D0F2EF9EBAF2E5F
:10017000F0E0BF2EF02D0F2EF7EA8F2EF0E09F2E2D
:10018000F02D0F2EF3EB6F2EF0E07F2EF02D0F2EC3
:10019000F5EB4F2EF0E05F2EF02D0F2EF8E82F2E0E
:1001A000F0E03F2EF02D81E060E0AE014B5F5F4F4D
:1001B00020E00E9418038D81882309F0F7C0CE014A
:1001C00006960E9403038E8180538A3070F41330A8
:1001D00061F0E1E0F0E0EC0FFD1FE00FF11D808326
:1001E0000F5F1F5F8AE20E94480589812A814B8147
:1001F0009E819D3309F098C0133009F095C0EC81C1
:10020000F0E090E08C9DB0018D9D700D9C9D700D77
:100210001124822F90E0880F991F9C01220F331F19
:10022000220F331F820F931F860F971F840F911D7C
:10023000E817F90731F592E09093C1000E948D050F
:10024000C1010E947E0580EC0E94AD0488E990E027
:100250000E947E0560E070E084EB92E40E94A406B8
:1002600081E065E00E94690681E066E00E9469061F
:1002700081E067E00E94610681E064E00E948806F8
:1002800053C08091C1008823B1F180EC0E94AD047D
:10029000C4010E947E058091C10090E00E94BD05CE
:1002A000C3010E947E0560E070E0CB010E94A406BD
:1002B00081E067E00E94690681E066E00E946906CD
:1002C00081E065E00E94610681E064E00E948806AA
:1002D0008AE061E00E949A05C2010E947E058AE0E0
:1002E00061E00E949A058091C10081508093C10015
:1002F00010E000E019C00E948D0585E061E00E94D9
:100300009A05C5010E947E0581E067E00E946906AA
:1003100081E066E00E94610681E065E00E94690676
:1003200081E064E00E9480068E81833209F03BCF39
:100330008091C1008823E9F481E067E00E946906AA
:1003400081E066E00E94610681E065E00E94690646
:1003500081E064E00E94800660E070E0CB010E94D2
:10036000A4060E948D05C7010E947E0510E000E0F2
:100370001ACF81E067E00E94690681E066E00E9492
:10038000690681E065E00E94690681E064E00E9400
:10039000880660E070E0CB010E94A4060E948D05F3
:1003A000C7010E947E0510E000E0FDCECE01079659
:1003B0000E94B4038F818F3F09F4F5CE8A3209F48D
:1003C000F2CE8F3209F4EFCE8D3209F4ECCE8B32BF
:1003D00009F4E9CE8D3309F4F4C0833209F4B3C0D3
:1003E000133009F4E0CEE1E0F0E0EC0FFD1FE00F88
:1003F000F11D80830F5F1F5F8AE20E94480589819B
:100400002A816B819F819D3309F099C090E08C9D7A
:10041000A0018D9D500D9C9D500D1124822F90E0C8
:10042000880F991F9C01220F331F220F331F820F49
:10043000931F840F951F9C01260F311D133009F067
:100440007EC08C8190E08217930731F5A2E0A093E3
:10045000C1000E948D05C1010E947E0580EC0E94B2
:10046000AD0488E990E00E947E0560E070E084EBD6
:1004700092E40E94A40681E065E00E94690681E0A2
:1004800066E00E94690681E067E00E94610681E003
:1004900064E00E94880653C08091C1008823B1F1B6
:1004A00080EC0E94AD04C4010E947E058091C100D1
:1004B00090E00E94BD05C3010E947E0560E070E0EF
:1004C000CB010E94A40681E067E00E94690681E0FA
:1004D00066E00E94690681E065E00E94610681E0B5
:1004E00064E00E9488068AE061E00E949A05C201E9
:1004F0000E947E058AE061E00E949A058091C10019
:1005000081508093C10010E000E019C00E948D0569
:1005100085E061E00E949A05C5010E947E0581E0A8
:1005200067E00E94690681E066E00E94610681E062
:1005300065E00E94690681E064E00E9480068F8188
:10054000833209F030CE8091C1008823E9F481E044
:1005500067E00E94690681E066E00E94610681E032
:1005600065E00E94690681E064E00E94800660E028
:1005700070E0CB010E94A4060E948D05C7010E9475
:100580007E0510E000E00FCE81E067E00E94690682
:1005900081E066E00E94690681E065E00E946906EC
:1005A00081E064E00E94880660E070E0CB010E9478
:1005B000A4060E948D05C7010E947E0510E000E0A0
:1005C000F2CD898190E08C9DA0018D9D500D9C9D68
:1005D000500D11248A8190E0880F991F9C01220FF1
:1005E000331F220F331F820F931F840F951F2B8100
:1005F000AC01420F511D9A0121CF0E947E0A08953D
:100600000E94930A08950E948B0A08950E94980AF6
:100610000895843028F4683018F440E00E94BC0645
:100620000895843020F4683010F40E948A080895F8
:10063000843020F4683010F40E94360808950E9437
:100640009C0908951F93CF93DF93D82F192FC62F9E
:100650000E94A709812F80650E94CA098D2F0E94E0
:10066000F0098C2F0E94F0090E94C3098FE19EE4DB
:100670000197F1F700C00000DF91CF911F9108951D
:100680000F931F93CF93DF93082FEB012097D1F0A7
:10069000192F10650E94A709812F0E94CA09802F77
:1006A0000E94F0090E94B509812F0E94DD09CE0148
:1006B0000E94FC090E94C3098FE19EE40197F1F7B3
:1006C00000C00000DF91CF911F910F91089580E04D
:1006D00060E040E00E94BC0680E061E040E00E94F3
:1006E000BC0680E062E040E00E94BC0680E063E07F
:1006F00040E00E94BC0682E064E04FEF0E94BC062E
:1007000082E065E04FEF0E94BC0682E066E04FEFBA
:100710000E94BC0682E067E04FEF0E94BC0682E0C8
:1007200064E041E00E94BC0682E065E041E00E9496
:10073000BC0682E066E041E00E94BC0682E067E021
:1007400041E00E94BC0680E060E00E948A0880E0F0
:1007500061E00E948A0880E062E00E948A0880E0EE
:1007600063E00E948A0808952F923F924F925F9211
:100770006F927F929F92AF92BF92CF92DF92EF9251
:10078000FF920F931F93CF93DF93CDB7DEB7A1975F
:100790000FB6F894DEBF0FBECDBF99A388A3009714
:1007A00009F483C08FEFE8A1F9A1808382E08A87F2
:1007B0008B878C878D8794E09E8395E09F8396E05E
:1007C000988797E099871A8291E09B838C8383E0D6
:1007D0008D83DE011E96E2ECF0E080E101900D9247
:1007E0008150E1F70F2EFAE04F2E5524F02D4C0EDC
:1007F0005D1E0F2EF6E02F2E3324F02D2C0E3D1E05
:10080000AA24BB24BF8EAE8EF201E1902F01F1012C
:1008100091901F018E2D692D40E00E945207CC243B
:10082000DD246894C1F8CC0EDD1E00E010E0380134
:10083000F601F1906F0180E06F2DAE014F5F5F4FC9
:100840000E94360889818823F1F480E06F2DAE0183
:100850004F5F5F4F0E94360889818823B1F3F3010F
:10086000EE0FFF1FEE0FFF1F81E090E08C0F9D1F2A
:10087000E80FF91F8E8D9F8DE80FF91F8585E8A180
:10088000F9A1808312C00F5F1F4F0430110579F664
:100890008E2D692D41E00E9452070894A11CB11CC5
:1008A000F4E0AF16B10409F0ADCFA1960FB6F894FD
:1008B000DEBF0FBECDBFDF91CF911F910F91FF9093
:1008C000EF90DF90CF90BF90AF909F907F906F9010
:1008D0005F904F903F902F900895CF93C82F80FD49
:1008E00006C080E064E040E00E94520705C080E05E
:1008F00064E041E00E9452078C2F869580FD06C07F
:1009000080E065E040E00E94520705C080E065E0BD
:1009100041E00E9452078C2F8695869580FD06C087
:1009200080E066E040E00E94520705C080E066E09B
:1009300041E00E945207C695C695C695C0FD06C007
:1009400080E067E040E00E94520705C080E067E079
:1009500041E00E945207CF910895CF93C82F81E0C4
:1009600061E040E00E94520781E062E040E00E94C6
:1009700052078C2F82958F700E946D0481E063E096
:1009800041E00E9452078FE99FE00197F1F700C014
:10099000000081E063E040E00E9452078C2F0E943B
:1009A0006D0481E063E041E00E9452078FE99FE01F
:1009B0000197F1F700C0000081E063E040E00E9491
:1009C0005207CF91089581E061E041E00E94BC06AA
:1009D00081E062E041E00E94BC0681E063E041E02A
:1009E0000E94BC0680E064E041E00E94BC0680E01A
:1009F00065E041E00E94BC0680E066E041E00E94C4
:100A0000BC0680E067E041E00E94BC068FE795EB02
:100A1000A1E081509040A040E1F700C0000081E0DB
:100A200061E040E00E94520781E062E040E00E9405
:100A3000520782E00E946D0481E063E041E00E9481
:100A40005207AFE9BFE01197F1F700C0000081E065
:100A500063E040E00E94520788E20E94AD04B0EFDC
:100A6000BA95F1F78CE00E94AD0480EF8A95F1F71A
:100A700081E00E94AD04AFE3BFE11197F1F700C040
:100A8000000086E00E94AD04B0EFBA95F1F708953A
:100A9000CF93C82F81E061E041E00E94520781E0DE
:100AA00062E040E00E9452078C2F82958F700E9476
:100AB0006D0481E063E041E00E9452078FE99FE00E
:100AC0000197F1F700C0000081E063E040E00E9480
:100AD00052078C2F0E946D0481E063E041E00E9488
:100AE00052078FE99FE00197F1F700C0000081E015
:100AF00063E040E00E945207CF910895CF93DF93C7
:100B0000EC018881882331F021960E944805899163
:100B10008823D9F7DF91CF91089581E00E94AD0439
:100B20008FE39FE10197F1F700C0000080E80E9489
:100B3000AD040895CF93DF9300D000D0CDB7DEB7DA
:100B400090E8998390EC9A8394E99B8394ED9C833D
:100B50008150FE01E60FF11D9081890F0E94AD04C6
:100B60008FE99FE00197F1F700C000000F900F9010
:100B70000F900F90DF91CF9108950F931F93CF9314
:100B8000DF93CDB7DEB7A0970FB6F894DEBF0FBEE8
:100B9000CDBF2DB73EB7285030400FB6F8943EBFBA
:100BA0000FBE2DBFEDB7FEB731968E010F5F1F4F01
:100BB000ADB7BEB712961C930E93119721E130E0AA
:100BC0003383228322ED30E0358324839783868329
:100BD0000E946C0D2DB73EB7285F3F4F0FB6F894BB
:100BE0003EBF0FBE2DBFC8010E947E05A0960FB666
:100BF000F894DEBF0FBECDBFDF91CF911F910F9153
:100C00000895CF93DF93EC01862F642F0E949A05FD
:100C1000CE010E94BD05DF91CF9108950F931F93E0
:100C2000CF93DF93CDB7DEB7A0970FB6F894DEBFB2
:100C30000FBECDBFDC01CB012DB73EB72A503040EF
:100C40000FB6F8943EBF0FBE2DBF4DB75EB74F5FD6
:100C50005F4F8E010F5F1F4FEDB7FEB71283018309
:100C600021E130E0FA013383228325ED30E0358342
:100C7000248386839783A087B1870E946C0D2DB74C
:100C80003EB7265F3F4F0FB6F8943EBF0FBE2DBF55
:100C9000C8010E947E05A0960FB6F894DEBF0FBE75
:100CA000CDBFDF91CF911F910F9108950E94AD04A8
:100CB0000895843028F4683018F441E00E94BC069E
:100CC0000895843028F4683018F441E00E945207F7
:100CD0000895843028F4683018F440E00E945207E8
:100CE0000895843020F4683010F40E94E8070895D5
:100CF000843028F4683018F441E00E94BC0608955E
:100D0000843028F4683018F441E00E9452070895B6
:100D1000843028F4683018F440E00E9452070895A7
:100D2000843020F4683010F40E94E807089583E0CE
:100D300065E041E00E94BC0683E064E041E00E947F
:100D4000BC060E940C0A089520E030E040E152E425
:100D50000E94A10B20E030E040EA50E40E94390BF1
:100D6000AB01BC0182E390E00E94390A0E94250A8F
:100D700008950E942F0A0895843008F08BC06830CF
:100D800008F08AC0423008F089C0813041F18130DA
:100D900038F0823009F441C0833009F081C05BC073
:100DA000413071F42AB381E090E0AC0102C0440FFD
:100DB000551F6A95E2F7BA01622B6ABB80E008957D
:100DC0002AB381E090E0AC0102C0440F551F6A9540
:100DD000E2F7BA01609562236ABB80E00895413072
:100DE00069F447B321E030E0C90102C0880F991FC0
:100DF0006A95E2F7842B87BB80E0089527B381E0F2
:100E000090E0AC0102C0440F551F6A95E2F7BA01A9
:100E10006095622367BB80E00895413069F444B374
:100E200021E030E0C90102C0880F991F6A95E2F7FE
:100E3000842B84BB80E0089524B381E090E0AC0172
:100E400002C0440F551F6A95E2F7BA01609562230C
:100E500064BB80E00895413071F421B381E090E0FB
:100E6000AC0102C0440F551F6A95E2F7BA01622B2C
:100E700061BB80E0089521B381E090E0AC0102C045
:100E8000440F551F6A95E2F7BA016095622361BB72
:100E900080E0089581E0089581E0089581E008955B
:100EA00080E00895843008F08BC0683008F08AC074
:100EB000423008F089C0813041F1813038F0823011
:100EC00009F441C0833009F081C05BC0413071F446
:100ED0002BB381E090E0AC0102C0440F551F6A952E
:100EE000E2F7BA01622B6BBB80E008952BB381E07F
:100EF00090E0AC0102C0440F551F6A95E2F7BA01B9
:100F0000609562236BBB80E00895413069F448B37B
:100F100021E030E0C90102C0880F991F6A95E2F70D
:100F2000842B88BB80E0089528B381E090E0AC0179
:100F300002C0440F551F6A95E2F7BA01609562231B
:100F400068BB80E00895413069F445B321E030E0AA
:100F5000C90102C0880F991F6A95E2F7842B85BBEF
:100F600080E0089525B381E090E0AC0102C0440F19
:100F7000551F6A95E2F7BA016095622365BB80E070
:100F80000895413071F422B381E090E0AC0102C0D9
:100F9000440F551F6A95E2F7BA01622B62BB80E0ED
:100FA000089522B381E090E0AC0102C0440F551FC8
:100FB0006A95E2F7BA016095622362BB80E008950A
:100FC00081E0089581E0089581E0089580E008952A
:100FD000843008F045C0683008F044C08130B1F07A
:100FE000813030F0823001F1833009F03DC02AC0F9
:100FF0002BB381E090E0AC0102C0440F551F6A950D
:10100000E2F7BA0162276BBB80E0089528B381E064
:1010100090E0AC0102C0440F551F6A95E2F7BA0197
:10102000622768BB80E0089525B381E090E0AC01C1
:1010300002C0440F551F6A95E2F7BA01622765BBEB
:1010400080E0089522B381E090E0AC0102C0440F3B
:10105000551F6A95E2F7BA01622762BB80E00895E6
:1010600081E0089581E0089580E00895843008F0DB
:1010700049C0683008F048C04115510509F446C020
:101080008130B1F0813030F0823001F1833009F0ED
:101090003FC02AC089B390E09C0102C035952795D6
:1010A0006A95E2F7B9016170FA01608380E0089502
:1010B00086B390E09C0102C0359527956A95E2F7CA
:1010C000B9016170FA01608380E0089583B390E014
:1010D0009C0102C0359527956A95E2F7B9016170C8
:1010E000FA01608380E0089580B390E09C0102C023
:1010F000359527956A95E2F7B9016170FA01608329
:1011000080E0089581E0089581E0089581E00895E8
:1011100080E00895843008F045C0683008F044C08D
:101120008130B1F0813030F0823001F1833009F04C
:101130003DC02AC02BB381E090E0AC0102C0440F57
:10114000551F6A95E2F7BA01622B6BBB80E00895E8
:1011500028B381E090E0AC0102C0440F551F6A95AE
:10116000E2F7BA01622B68BB80E0089525B381E005
:1011700090E0AC0102C0440F551F6A95E2F7BA0136
:10118000622B65BB80E0089522B381E090E0AC0162
:1011900002C0440F551F6A95E2F7BA01622B62BB89
:1011A00080E0089581E0089581E0089580E0089549
:1011B0008430A8F5813091F0813028F08230C9F078
:1011C000833079F521C06F3F29F48AB38FEF8ABB52
:1011D00080E008958AB31ABA80E008956F3F29F439
:1011E00087B38FEF87BB80E0089587B317BA80E09D
:1011F00008956F3F29F484B38FEF84BB80E0089596
:1012000084B314BA80E008956F3F29F481B38FEF5F
:1012100081BB80E0089581B311BA80E0089581E038
:10122000089580E008958430A8F4813051F0813031
:1012300028F0823049F0833079F409C06BBB80E03C
:10124000089568BB80E0089565BB80E0089562BBA7
:1012500080E0089581E0089580E00895843000F5ED
:1012600061157105F9F0813061F0813028F082302C
:1012700069F08330C9F40FC08BB3FB01808380E039
:10128000089588B3FB01808380E0089585B3FB0156
:10129000808380E0089582B3FB01808380E008951D
:1012A00081E0089581E0089580E008958430E8F4B5
:1012B000813061F0813028F0823069F08330B9F4F8
:1012C0000FC08BB380958BBB80E0089588B3809569
:1012D00088BB80E0089585B3809585BB80E0089544
:1012E00082B3809582BB80E0089581E0089580E01C
:1012F00008958430E8F4813061F0813028F0823044
:1013000069F08330B9F40FC08BB38FEF8BBB80E0F3
:10131000089588B38FEF88BB80E0089585B38FEF81
:1013200085BB80E0089582B38FEF82BB80E0089593
:1013300081E0089580E008958CE080B908980998CC
:1013400086B7806486BF86B7846086BF089586B7F7
:10135000806286BF86B7806886BF06B607FEFDCF6F
:1013600081B1887F8830E1F7089586B7806286BFB3
:1013700086B7806886BF06B607FEFDCF81B1887F3D
:101380008031E1F7089586B7806186BF86B78068AF
:1013900086BF0895882384F0880F83B9189886B78C
:1013A0008F7D86BF86B7806886BF06B607FEFDCFF5
:1013B00081B1887F8831E1F70895882384F0880F10
:1013C00083B9189A86B78F7D86BF86B7806886BF37
:1013D00006B607FEFDCF81B1887F8034E1F708951E
:1013E00083B986B7806886BF06B607FEFDCF81B198
:1013F000887F8832E1F70895009769F026B7206862
:1014000026BF06B607FEFDCF21B1287F2035E1F7C4
:1014100023B1FC01208308958FB58E7F8FBD8FB5DA
:1014200082608FBD8EB588608EBD8EB580618EBDA9
:101430008FB58F7B8FBD8FB580688FBD8FB58F7E49
:101440008FBD8FB580628FBD08958EB581608EBDD2
:101450008EB582608EBD8EB58B7F8EBD08958EB5A4
:101460008E7F8EBD8EB58D7F8EBD8EB58B7F8EBDF2
:101470000895CF92DF92EF92FF92CF93DF93EC012A
:101480006A017B01CB01BA0120E030E048EC52E474
:101490000E949D0B18165CF19E0140E050E060E94F
:1014A00070ED83E090E00E944A0D2150304037BD3E
:1014B00026BD66B577B56F5F7F4F80E090E00E94F4
:1014C000350CA70196010E94E70C20E030E048ECC3
:1014D00052E40E94A10B20E030E040E85FE30E946C
:1014E000380B0E94090CDC01CB019BBD8ABDDF914A
:1014F000CF91FF90EF90DF90CF900895529886E8BB
:1015000080BD87E689B910BC5998579A569A559A62
:10151000539A549A0895009729F05F9BFECF2CB1FF
:10152000FC01208308958CB98BB185FFFDCF089510
:101530000F931F93CF938C01FC018081882351F07E
:10154000C0E00E94930ACF5FF801EC0FF11D80818B
:101550008823B9F7CF911F910F9108959093D900E7
:101560008093D80008959093DB008093DA0008956B
:101570009093DD008093DC0008951F920F920FB6C8
:101580000F9211242F933F934F935F936F937F9309
:101590008F939F93AF93BF93EF93FF93E091D80006
:1015A000F091D900309709F00995FF91EF91BF9123
:1015B000AF919F918F917F916F915F914F913F91EB
:1015C0002F910F900FBE0F901F9018951F920F92A2
:1015D0000FB60F9211242F933F934F935F936F9306
:1015E0007F938F939F93AF93BF93EF93FF93E0917C
:1015F000DA00F091DB00309709F00995FF91EF9147
:10160000BF91AF919F918F917F916F915F914F911A
:101610003F912F910F900FBE0F901F9018951F9222
:101620000F920FB60F9211242F933F934F935F9316
:101630006F937F938F939F93AF93BF93EF93FF939A
:10164000E091DC00F091DD00309709F00995FF9101
:10165000EF91BF91AF919F918F917F916F915F912A
:101660004F913F912F910F900FBE0F901F901895A3
:101670005058BB27AA270ED070C161D130F066D177
:1016800020F031F49F3F11F41EF456C10EF4E095A2
:10169000E7FB4CC1E92F72D180F3BA1762077307D9
:1016A0008407950718F071F49EF58AC10EF4E09551
:1016B0000B2EBA2FA02D0B01B90190010C01CA010C
:1016C000A0011124FF27591B99F0593F50F4503EB7
:1016D00068F11A16F040A22F232F342F4427585FA9
:1016E000F3CF469537952795A795F0405395C9F7C1
:1016F0007EF41F16BA0B620B730B840BBAF0915079
:10170000A1F0FF0FBB1F661F771F881FC2F70EC017
:10171000BA0F621F731F841F48F4879577956795EA
:10172000B795F7959E3F08F0B3CF9395880F08F0D3
:101730009927EE0F979587950895D4D008F481E006
:1017400008950CD00AC102D140F0F9D030F021F454
:101750005F3F19F0EBC0511134C1EEC00FD198F3C7
:101760009923C9F35523B1F3951B550BBB27AA2722
:1017700062177307840738F09F5F5F4F220F331F94
:10178000441FAA1FA9F333D00E2E3AF0E0E830D060
:1017900091505040E695001CCAF729D0FE2F27D063
:1017A000660F771F881FBB1F261737074807AB0731
:1017B000B0E809F0BB0B802DBF01FF2793585F4FA6
:1017C0002AF09E3F510568F0B1C0FBC05F3FECF3CB
:1017D000983EDCF3869577956795B795F7959F5F6B
:1017E000C9F7880F911D9695879597F90895E1E0BF
:1017F000660F771F881FBB1F621773078407BA071E
:1018000020F0621B730B840BBA0BEE1F88F7E09578
:101810000895BCD088F09F5790F0B92F9927B75101
:10182000A0F0D1F0660F771F881F991F1AF0BA95A4
:10183000C9F712C0B13081F0C3D0B1E00895C0C083
:10184000672F782F8827B85F39F0B93FCCF386959A
:1018500077956795B395D9F73EF4909580957095F7
:1018600061957F4F8F4F9F4F0895E89409C097FB74
:101870003EF490958095709561957F4F8F4F9F4F67
:101880009923A9F0F92F96E9BB279395F6958795AB
:1018900077956795B795F111F8CFFAF4BB0F11F46E
:1018A00060FF1BC06F5F7F4F8F4F9F4F16C0882315
:1018B00011F096E911C0772321F09EE8872F762F4B
:1018C00005C0662371F096E8862F70E060E02AF08C
:1018D0009A95660F771F881FDAF7880F9695879578
:1018E00097F90895990F0008550FAA0BE0E8FEEF4D
:1018F00016161706E807F907C0F012161306E407D4
:10190000F50798F0621B730B840B950B39F40A26CC
:1019100061F0232B242B252B21F408950A2609F4AA
:10192000A140A6958FEF811D811D089597F99F67AE
:1019300080E870E060E008959FEF80EC0895002457
:101940000A941616170618060906089500240A9424
:1019500012161306140605060895092E0394000CAA
:1019600011F4882352F0BB0F40F4BF2B11F460FF39
:1019700004C06F5F7F4F8F4F9F4F089557FD905862
:10198000440F551F59F05F3F71F04795880F97FB43
:10199000991F61F09F3F79F08795089512161306FD
:1019A0001406551FF2CF4695F1DF08C0161617062C
:1019B0001806991FF1CF8695710561050894089561
:1019C000E894BB2766277727CB0197F908950BD0BA
:1019D000C4CFB5DF28F0BADF18F0952309F0A6CF01
:1019E000ABCF1124EECFCADFA0F3959FD1F3950FB3
:1019F00050E0551F629FF001729FBB27F00DB11D93
:101A0000639FAA27F00DB11DAA1F649F6627B00D22
:101A1000A11D661F829F2227B00DA11D621F739F0B
:101A2000B00DA11D621F839FA00D611D221F749F19
:101A30003327A00D611D231F849F600D211D822F60
:101A4000762F6A2F11249F5750408AF0E1F08823A7
:101A50004AF0EE0FFF1FBB1F661F771F881F9150B4
:101A60005040A9F79E3F510570F060CFAACF5F3F6D
:101A7000ECF3983EDCF3869577956795B795F795E7
:101A8000E7959F5FC1F7FE2B880F911D969587956F
:101A900097F90895A1E21A2EAA1BBB1BFD010DC0E8
:101AA000AA1FBB1FEE1FFF1FA217B307E407F5070E
:101AB00020F0A21BB30BE40BF50B661F771F881FEA
:101AC000991F1A9469F760957095809590959B0180
:101AD000AC01BD01CF010895AEE0B0E0E2E7FDE06A
:101AE0000C9428100D891E898F89988D26E02C83EF
:101AF0001A83098397FF02C080E090E801979E83D4
:101B00008D83AE01455E5F4FCE010196698D7A8D62
:101B10000E949C0D4D815E8157FD0AC02F81388542
:101B2000421753070CF49A01020F131FF801108299
:101B30002E96E4E00C944410ADE0B0E0E2EAFDE063
:101B40000C941A103C017D876C875A01FC011782A6
:101B50001682838181FFC8C12E010894411C511C4B
:101B6000F3019381EC85FD8593FD859193FF819130
:101B7000FD87EC87882309F4B3C1853241F493FDD6
:101B8000859193FF8191FD87EC87853229F490E060
:101B9000B3010E94900FE4CFFF24EE2410E0103236
:101BA000B0F48B3269F08C3228F4803251F08332F9
:101BB00071F40BC08D3239F0803349F411602CC0C0
:101BC0001260146029C0186027C0106125C017FD7D
:101BD0002EC0282F20532A3098F416FF08C08F2DCE
:101BE000880FF82EFF0CFF0CF80EF20E15C08E2D8C
:101BF000880FE82EEE0CEE0CE80EE20E10620CC020
:101C00008E3221F416FD6CC1106406C08C3611F4BE
:101C1000106802C0883659F4EC85FD8593FD8591E6
:101C200093FF8191FD87EC87882309F0B8CF982F27
:101C30009554933018F09052933038F424E030E00B
:101C4000A20EB31E3FE339830FC0833631F08337D2
:101C500081F0833509F05AC022C0F5018081898363
:101C600022E030E0A20EB31E21E0C22ED12C4201B0
:101C700014C092E0292E312C2A0C3B1CF5018080E7
:101C8000918016FF03C06F2D70E002C06FEF7FEFF1
:101C9000C4010E94850F6C0151011F7715C082E0BD
:101CA000282E312C2A0C3B1CF5018080918016FFD8
:101CB00003C06F2D70E002C06FEF7FEFC4010E9480
:101CC0007A0F6C011068510113FD1CC006C080E240
:101CD00090E0B3010E94900FEA948E2D90E0C81618
:101CE000D906A8F30FC0F40117FD859117FF819164
:101CF0004F0190E0B3010E94900FE110EA94089424
:101D0000C108D108C114D10471F7E7C0843611F0BD
:101D1000893651F5F50117FF07C080819181A281B5
:101D2000B38124E030E008C080819181AA2797FD2B
:101D3000A095BA2F22E030E0A20EB31E012F0F763D
:101D4000B7FF08C0B095A095909581959F4FAF4F74
:101D5000BF4F0068BC01CD01A2012AE030E00E9423
:101D6000BC0FD82ED4183FC0853721F41F7E2AE03F
:101D700030E020C0197F8F36A9F0803720F48835F5
:101D800009F0AEC00BC0803721F0883709F0A8C039
:101D900001C0106114FF09C0146007C014FF08C01F
:101DA000166006C028E030E005C020E130E002C047
:101DB00020E132E0F50117FF07C060817181828167
:101DC000938144E050E006C06081718180E090E042
:101DD00042E050E0A40EB51EA2010E94BC0FD82E16
:101DE000D418012F0F7706FF09C00E7FDF1430F4DF
:101DF00004FF06C002FD04C00F7E02C01D2D01C0FD
:101E00001F2D802F90E004FF0CC0FE01ED0DF11D91
:101E10002081203311F4097E09C002FF06C01E5F35
:101E200005C086789070009709F01F5F802E992476
:101E300003FD12C000FF0DC0FD2C1E1550F4FE0C5A
:101E4000F11A1E2D06C080E290E0B3010E94900FAF
:101E50001F5F1E15C0F304C01E1510F4E11A01C067
:101E6000EE2484FE0FC080E390E0B3010E94900F47
:101E700082FE1FC081FE03C088E590E010C088E7A5
:101E800090E00DC0C40186789070009791F081FCBD
:101E900002C080E201C08BE207FD8DE290E0B30159
:101EA0000E94900F06C080E390E0B3010E94900F63
:101EB000FA94DF14C0F3DA94F201ED0DF11D808184
:101EC00090E0B3010E94900FDD20A9F706C080E2E8
:101ED00090E0B3010E94900FEA94EE20C1F740CE4B
:101EE000F3018681978102C08FEF9FEF2D96E2E18B
:101EF0000C943610FC010590615070400110D8F729
:101F0000809590958E0F9F1F0895FC016150704041
:101F100001900110D8F7809590958E0F9F1F08951E
:101F20000F931F93CF93DF938C01EB018B8181FF84
:101F30001BC082FF0DC02E813F818C819D8128179F
:101F4000390764F4E881F9810193F983E88306C0D5
:101F5000E885F985802F0995009731F48E819F815E
:101F600001969F838E8302C00FEF1FEFC801DF91A0
:101F7000CF911F910F910895FA01AA27283051F1AE
:101F8000203181F1E8946F936E7F6E5F7F4F8F4FAA
:101F90009F4FAF4FB1E03ED0B4E03CD0670F781F09
:101FA000891F9A1FA11D680F791F8A1F911DA11DEE
:101FB0006A0F711D811D911DA11D20D009F4689427
:101FC0003F912AE0269F11243019305D3193DEF6CF
:101FD000CF010895462F4770405D4193B3E00FD085
:101FE000C9F7F6CF462F4F70405D4A3318F0495D70
:101FF00031FD4052419302D0A9F7EACFB4E0A69553
:102000009795879577956795BA95C9F70097610574
:10201000710508959B01AC010A2E069457954795CA
:1020200037952795BA95C9F7620F731F841F951FBF
:10203000A01D08952F923F924F925F926F927F92D0
:102040008F929F92AF92BF92CF92DF92EF92FF92C8
:102050000F931F93CF93DF93CDB7DEB7CA1BDB0B74
:102060000FB6F894DEBF0FBECDBF09942A88398819
:1020700048885F846E847D848C849B84AA84B98420
:10208000C884DF80EE80FD800C811B81AA81B9812C
:10209000CE0FD11D0FB6F894DEBF0FBECDBFED0140
:0620A0000895F894FFCF43
:1020A60020202020454E544552202020200020206C
:1020B600202050415353574F524420202000504176
:1020C6005353574F52443A002020202057454C4343
:1020D6004F4D45202020200020202020205553450C
:1020E6005220202020200054727920416761696EB9
:1020F600205B005D00202020005741524D494E478D
:1021060000020708092F0405062A0102032D2300F1
:082116003D2B25640025660045
:00000001FF
